:020000040800F2
:100000000000022091D60008DDBC0008E5BC000815
:10001000EDBC0008F5BC0008FDBC000800000000B5
:1000200000000000000000000000000049940008EB
:1000300005BD000800000000059400083593000885
:10004000E1D60008E1D60008E1D60008E1D60008B4
:10005000E1D60008E1D60008E1D60008E1D60008A4
:10006000E1D60008E1D60008E1D6000849A2000860
:10007000E1D60008E1D60008E1D60008E1D6000884
:10008000E1D60008E1D60008E1D60008E1D6000874
:10009000E1D60008E1D60008E1D60008E1D6000864
:1000A000E1D60008E1D60008E1D60008E1D6000854
:1000B00015BD0008E1D60008E1D60008E1D6000829
:1000C000E1D60008E1D60008E1D60008E1D6000834
:1000D000E1D60008E1D60008E1D60008E1D6000824
:1000E00029BD0008E1D60008E1D60008E1D60008E5
:1000F000E1D60008E1D60008E1D60008E1D6000804
:10010000E1D60008E1D60008E1D60008E1D60008F3
:10011000E1D60008E1D60008E1D60008E1D60008E3
:10012000E1D60008E1D60008E1D60008E1D60008D3
:10013000E1D60008E1D60008E1D60008E1D60008C3
:10014000E1D60008E1D60008E1D60008E1D60008B3
:10015000E1D60008E1D60008E1D60008E1D60008A3
:10016000E1D60008E1D60008E1D60008E1D6000893
:10017000E1D60008E1D60008E1D60008E1D6000883
:10018000E1D60008E1D60008E1D60008E1D6000873
:10019000E1D6000800000000E1D60008E1D6000822
:1001A000E1D60008E1D60008E1D6000835A2000833
:1001B000E1D60008E1D60008E1D60008E1D6000843
:1001C000E1D60008E1D60008E1D60008E1D6000833
:0801D000E1D60008E1D60008A9
:1001D80081F0004102E000BF83F0004330B54FEAF0
:1001E80041044FEA430594EA050F08BF90EA020F5D
:1001F8001FBF54EA000C55EA020C7FEA645C7FEAF0
:10020800655C00F0E2804FEA5454D4EB5555B8BF12
:100218006D420CDD2C4480EA020281EA030382EA83
:10022800000083EA010180EA020281EA0303362D15
:1002380088BF30BD11F0004F4FEA01314FF4801CE8
:100248004CEA113102D0404261EB410113F0004FFA
:100258004FEA03334CEA133302D0524263EB4303B1
:1002680094EA050F00F0A780A4F10104D5F1200E4F
:100278000DDB02FA0EFC22FA05F2801841F10001AA
:1002880003FA0EF2801843FA05F359410EE0A5F17E
:1002980020050EF1200E012A03FA0EFC28BF4CF0AF
:1002A800020C43FA05F3C01851EBE37101F0004565
:1002B80007D54FF0000EDCF1000C7EEB00006EEB72
:1002C8000101B1F5801F1BD3B1F5001F0CD34908FC
:1002D8005FEA30004FEA3C0C04F101044FEA445253
:1002E80012F5800F80F09A80BCF1004F08BF5FEADA
:1002F800500C50F1000041EB045141EA050130BDBA
:100308005FEA4C0C404141EB0101013C28BFB1F5CB
:10031800801FE9D291F0000F04BF01460020B1FA16
:1003280081F308BF2033A3F10B03B3F120020CDAE9
:100338000C3208DD02F1140CC2F10C0201FA0CF0C7
:1003480021FA02F10CE002F11402D8BFC2F1200C2C
:1003580001FA02F120FA0CFCDCBF41EA0C019040E2
:10036800E41AA2BF01EB0451294330BD6FEA04042B
:100378001F3C1CDA0C340EDC04F11404C4F1200216
:1003880020FA04F001FA02F340EA030021FA04F328
:1003980045EA030130BDC4F10C04C4F1200220FA7F
:1003A80002F001FA04F340EA0300294630BD21FABD
:1003B80004F0294630BD94F0000F83F4801306BF83
:1003C80081F480110134013D4EE77FEA645C18BF77
:1003D8007FEA655C29D094EA050F08BF90EA020F0E
:1003E80005D054EA000C04BF1946104630BD91EA06
:1003F800030F1EBF0021002030BD5FEA545C05D109
:100408004000494128BF41F0004130BD14F5800447
:100418003CBF01F5801130BD01F0004545F0FE41BB
:1004280041F470014FF0000030BD7FEA645C1ABFF0
:10043800194610467FEA655C1CBF0B46024650EA27
:10044800013406BF52EA033591EA030F41F4002153
:1004580030BD00BF90F0000F04BF0021704730B5D9
:100468004FF4806404F132044FF000054FF00001AE
:1004780050E700BF90F0000F04BF0021704730B56F
:100488004FF4806404F1320410F0004548BF404244
:100498004FF000013EE700BF42004FEAE2014FEA99
:1004A80031014FEA02701FBF12F07F4393F07F4F74
:1004B80081F06051704732F07F4208BF704793F077
:1004C8007F4F04BF41F40021704730B54FF460748A
:1004D80001F0004521F000411CE700BF50EA01028D
:1004E80008BF704730B54FF000050AE050EA010236
:1004F80008BF704730B511F0004502D5404261EBA6
:1005080041014FF4806404F132045FEA915C3FF4E6
:10051800D8AE4FF003025FEADC0C18BF03325FEA83
:10052800DC0C18BF033202EBDC02C2F1200300FA34
:1005380003FC20FA02F001FA03FE40EA0E0021FA59
:1005480002F11444BDE600BF70B54FF0FF0C4CF447
:10055800E06C1CEA11541DBF1CEA135594EA0C0FF9
:1005680095EA0C0F00F0DEF82C4481EA030621EA34
:100578004C5123EA4C5350EA013518BF52EA03356F
:1005880041F4801143F4801338D0A0FB02CE4FF021
:100598000005E1FB02E506F00042E0FB03E54FF051
:1005A8000006E1FB03569CF0000F18BF4EF0010E49
:1005B800A4F1FF04B6F5007F64F5407404D25FEA45
:1005C8004E0E6D4146EB060642EAC62141EA5551F8
:1005D8004FEAC52040EA5E504FEACE2EB4F1FD0C3A
:1005E80088BFBCF5E06F1ED8BEF1004F08BF5FEAB8
:1005F800500E50F1000041EB045170BD06F000466A
:1006080046EA010140EA020081EA0301B4EB5C0416
:10061800C2BFD4EB0C0541EA045170BD41F480110E
:100628004FF0000E013C00F3AB8014F1360FDEBF33
:10063800002001F0004170BDC4F10004203C35DA0F
:100648000C341BDC04F11404C4F1200500FA05F392
:1006580020FA04F001FA05F240EA020001F0004233
:1006680021F0004110EBD37021FA04F642EB0601A9
:100678005EEA430E08BF20EAD37070BDC4F10C04D3
:10068800C4F1200500FA04F320FA05F001FA04F297
:1006980040EA020001F0004110EBD37041F1000183
:1006A8005EEA430E08BF20EAD37070BDC4F120058E
:1006B80000FA05F24EEA020E20FA04F301FA05F2F6
:1006C80043EA020321FA04F001F0004121FA04F29E
:1006D80020EA020000EBD3705EEA430E08BF20EA6E
:1006E800D37070BD94F0000F0FD101F000464000A8
:1006F80041EB010111F4801F08BF013CF7D041EA2A
:10070800060195F0000F18BF704703F0004652002D
:1007180043EB030313F4801F08BF013DF7D043EAFE
:100728000603704794EA0C0F0CEA135518BF95EAB4
:100738000C0F0CD050EA410618BF52EA4306D1D13B
:1007480081EA030101F000414FF0000070BD50EA5A
:10075800410606BF1046194652EA430619D094EAE4
:100768000C0F02D150EA013613D195EA0C0F05D1CE
:1007780052EA03361CBF104619460AD181EA030122
:1007880001F0004141F0FE4141F470014FF00000DA
:1007980070BD41F0FE4141F4780170BD70B54FF075
:1007A800FF0C4CF4E06C1CEA11541DBF1CEA1355F5
:1007B80094EA0C0F95EA0C0F00F0A7F8A4EB0504D7
:1007C80081EA030E52EA03354FEA013100F08880CE
:1007D8004FEA03334FF0805545EA131343EA126397
:1007E8004FEA022245EA111545EA10654FEA00264C
:1007F8000EF000419D4208BF964244F1FD0404F505
:10080800407402D25B084FEA3202B61A65EB030560
:100818005B084FEA32024FF480104FF4002CB6EB1D
:10082800020E75EB030E22BFB61A754640EA0C009D
:100838005B084FEA3202B6EB020E75EB030E22BFDD
:10084800B61A754640EA5C005B084FEA3202B6EB1E
:10085800020E75EB030E22BFB61A754640EA9C00DD
:100868005B084FEA3202B6EB020E75EB030E22BFAD
:10087800B61A754640EADC0055EA060E18D04FEA6B
:10088800051545EA16754FEA06164FEAC30343EA0B
:1008980052734FEAC2025FEA1C1CC0D111F4801FD8
:1008A8000BD141EA00014FF000004FF0004CB6E7D1
:1008B80011F4801F04BF01430020B4F1FD0C88BF70
:1008C800BCF5E06F3FF6AFAEB5EB030C04BFB6EB7B
:1008D800020C5FEA500C50F1000041EB045170BD6E
:1008E8000EF0004E4EEA113114EB5C04C2BFD4EB9B
:1008F8000C0541EA045170BD41F480114FF0000E1F
:10090800013C90E645EA060E8DE60CEA135594EA9A
:100918000C0F08BF95EA0C0F3FF43BAF94EA0C0F9D
:100928000AD150EA01347FF434AF95EA0C0F7FF412
:1009380025AF104619462CE795EA0C0F06D152EA66
:1009480003353FF4FDAE1046194622E750EA41064A
:1009580018BF52EA43067FF4C5AE50EA41047FF45B
:100968000DAF52EA43057FF4EBAE12E74FF0FF3CC0
:1009780006E000BF4FF0010C02E000BF4FF0010C91
:100988004DF804CD4FEA410C7FEA6C5C4FEA430C0A
:1009980018BF7FEA6C5C1BD001B050EA410C0CBF59
:1009A80052EA430C91EA030F02BF90EA020F0020BB
:1009B800704710F1000F91EA030F58BF994208BF22
:1009C80090422CBFD8176FEAE37040F001007047DF
:1009D8004FEA410C7FEA6C5C02D150EA013C07D136
:1009E8004FEA430C7FEA6C5CD6D152EA033CD3D081
:1009F8005DF8040B704700BF8446104662468C467B
:100A08001946634600E000BF01B5FFF7B7FF0028AD
:100A180048BF10F1000F01BD4DF808EDFFF7F4FFD6
:100A28000CBF012000205DF808FB00BF4DF808ED61
:100A3800FFF7EAFF34BF012000205DF808FB00BF84
:100A48004DF808EDFFF7E0FF94BF012000205DF8A6
:100A580008FB00BF4DF808EDFFF7CEFF94BF01205B
:100A680000205DF808FB00BF4DF808EDFFF7C4FF54
:100A780034BF012000205DF808FB00BF4FEA410C9D
:100A88007FEA6C5C02D150EA013C0AD14FEA430C80
:100A98007FEA6C5C02D152EA033C02D14FF00000BD
:100AA80070474FF0010070474A0011D212F500124A
:100AB80011D20DD56FF47873B3EB62520ED44FEAAE
:100AC800C12343F0004343EA505323FA02F070472E
:100AD8004FF00000704750EA013002D14FF0FF306C
:100AE80070474FF00000704753B94AB9002908BF52
:100AF80000281CBF4FF0FF314FF0FF3000F00CB85A
:100B0800ADF1080C6DE904CE0CF0A4FFDDF804E0AB
:100B1800DDE9022304B07047704700BF0348044B67
:100B2800834202D0034B03B118477047E40000200A
:100B3800E4000020000000000548064B1B1AD90FEE
:100B480001EBA301491002D0034B03B118477047CA
:100B5800E4000020E40000200000000010B5064C6E
:100B6800237843B9FFF7DAFF044B13B10448AFF316
:100B780000800123237010BDE80000200000000061
:100B880098DD000808B5054B1BB105490548AFF3CA
:100B98000080BDE80840FFF7CFBF00BF000000009D
:100BA800EC00002098DD000880B485B000AF7860C4
:100BB8007B681B6803F06003FB60FB68002B04D1B3
:100BC8007B681B6803F01003FB60FB68184614374A
:100BD800BD465DF8047B704780B483B000AF786091
:100BE8007B685B6A18460C37BD465DF8047B704726
:100BF80080B483B000AF78607B681B6B18460C37F5
:100C0800BD465DF8047B704780B483B000AF786060
:100C180039607B681A6A3B681A437B681A6200BFAE
:100C28000C37BD465DF8047B704780B483B000AFD5
:100C3800786039607B681A6A3B68DB431A407B68D6
:100C48001A6200BF0C37BD465DF8047B704780B45C
:100C580083B000AF78607B685B6C43F400427B68CC
:100C68005A6400BF0C37BD465DF8047B704780B4FA
:100C780083B000AF78607B681B6903F48013B3F519
:100C8800801F01D1012300E0002318460C37BD4620
:100C98005DF8047B704780B483B000AF78607B68F0
:100CA800DB6843F001027B68DA6000BF0C37BD46A1
:100CB8005DF8047B704780B483B000AF78607B68D0
:100CC800DB6823F001027B68DA6000BF0C37BD46A1
:100CD8005DF8047B704780B483B000AF78607B68B0
:100CE800DB6803F00103012B01D1012300E000239D
:100CF80018460C37BD465DF8047B704780B483B056
:100D080000AF78607B68DB6843F002027B68DA60DA
:100D180000BF0C37BD465DF8047B704780B483B0D4
:100D280000AF78607B68DB6823F002027B68DA60DA
:100D380000BF0C37BD465DF8047B704780B483B0B4
:100D480000AF78607B68DB6803F00203022B01D1F7
:100D5800012300E0002318460C37BD465DF8047BEC
:100D6800704780B483B000AF78607B68DB6843F07D
:100D780004027B68DA6000BF0C37BD465DF8047B6F
:100D8800704780B483B000AF78607B68DB6823F07D
:100D980004027B68DA6000BF0C37BD465DF8047B4F
:100DA800704780B483B000AF78607B68DB6803F07D
:100DB8000403042B01D1012300E0002318460C375B
:100DC800BD465DF8047B704780B483B000AF78609F
:100DD8007B68DB6843F008027B68DA6000BF0C3789
:100DE800BD465DF8047B704780B483B000AF78607F
:100DF8007B68DB6823F008027B68DA6000BF0C3789
:100E0800BD465DF8047B704780B483B000AF78605E
:100E18007B68DB6803F00803082B01D1012300E09D
:100E2800002318460C37BD465DF8047B704780B434
:100E380083B000AF78607B68DB6843F010027B68A2
:100E4800DA6000BF0C37BD465DF8047B704780B49C
:100E580083B000AF78607B68DB6823F010027B68A2
:100E6800DA6000BF0C37BD465DF8047B704780B47C
:100E780083B000AF78607B68DB6803F01003102B49
:100E880001D1012300E0002318460C37BD465DF868
:100E9800047B704780B483B000AF78607B68DB6800
:100EA80043F020027B68DA6000BF0C37BD465DF86E
:100EB800047B704780B483B000AF78607B68DB68E0
:100EC80023F020027B68DA6000BF0C37BD465DF86E
:100ED800047B704780B483B000AF78607B68DB68C0
:100EE80003F02003202B01D1012300E00023184642
:100EF8000C37BD465DF8047B704780B483B000AF03
:100F080078607B68DB6843F040027B68DA6000BF8A
:100F18000C37BD465DF8047B704780B483B000AFE2
:100F280078607B68DB6823F040027B68DA6000BF8A
:100F38000C37BD465DF8047B704780B483B000AFC2
:100F480078607B68DB6803F04003402B01D1012304
:100F580000E0002318460C37BD465DF8047B704757
:100F680080B483B000AF78607B68DB6843F08002B0
:100F78007B68DA6000BF0C37BD465DF8047B7047BC
:100F880080B483B000AF78607B68DB6823F08002B0
:100F98007B68DA6000BF0C37BD465DF8047B70479C
:100FA80080B483B000AF78607B68DB6803F08003AF
:100FB800802B01D1012300E0002318460C37BD46E1
:100FC8005DF8047B704780B483B000AF78607B68BD
:100FD800DB6843F400027B68DA6000BF0C37BD466B
:100FE8005DF8047B704780B483B000AF78607B689D
:100FF800DB6823F400027B68DA6000BF0C37BD466B
:101008005DF8047B704780B483B000AF78607B687C
:10101800DB6803F40003B3F5000F01D1012300E0FE
:10102800002318460C37BD465DF8047B704780B432
:1010380083B000AF78607B68DB6843F480027B682C
:10104800DA6000BF0C37BD465DF8047B704780B49A
:1010580083B000AF78607B68DB6823F480027B682C
:10106800DA6000BF0C37BD465DF8047B704780B47A
:1010780083B000AF78607B68DB6803F48003B3F566
:10108800800F01D1012300E0002318460C37BD462C
:101098005DF8047B704780B483B000AF78607B68EC
:1010A800DB6843F400127B68DA6000BF0C37BD468A
:1010B8005DF8047B704780B483B000AF78607B68CC
:1010C800DB6823F400127B68DA6000BF0C37BD468A
:1010D8005DF8047B704780B483B000AF78607B68AC
:1010E800DB6803F40013B3F5001F01D1012300E00E
:1010F800002318460C37BD465DF8047B704780B462
:1011080083B000AF78607B68DB6843F480127B684B
:10111800DA6000BF0C37BD465DF8047B704780B4C9
:1011280083B000AF78607B68DB6823F480127B684B
:10113800DA6000BF0C37BD465DF8047B704780B4A9
:1011480083B000AF78607B68DB6803F48013B3F585
:10115800801F01D1012300E0002318460C37BD464B
:101168005DF8047B704780B582B000AF78607B681B
:101178001B681846FFF77BFD0346012B02D17B68ED
:101188000122DA717B68DB79012B0CBF0123002374
:10119800DBB218460837BD4680BD80B582B000AFC7
:1011A80078600B467B807B8803F00103002B0CD012
:1011B8007B681B681846FFF7C0FE0346012B04D066
:1011C8007B681B681846FFF798FE7B8803F00203CC
:1011D800002B0CD07B681B681846FFF7AFFD034651
:1011E800012B04D07B681B681846FFF787FD7B88B6
:1011F80003F00403002B0CD07B681B681846FFF72C
:10120800D0FD0346012B04D07B681B681846FFF706
:10121800A8FD7B8803F00803002B0CD07B681B68B3
:101228001846FFF7F1FD0346012B04D07B681B68C5
:101238001846FFF7C9FD7B8803F01003002B0CD07C
:101248007B681B681846FFF712FE0346012B04D083
:101258007B681B681846FFF7EAFD7B8803F02003CC
:10126800002B0CD07B681B681846FFF734FD03463B
:10127800012B04D07B681B681846FFF70CFD7B88A0
:1012880003F04003002B0CD07B681B681846FFF75F
:1012980087FE0346012B04D07B681B681846FFF7BE
:1012A8005FFE7B8803F08003002B0CD07B681B68F3
:1012B8001846FFF70FFE0346012B04D07B681B6816
:1012C8001846FFF7E7FD7B8803F48073002B0CD0EA
:1012D8007B681B681846FFF732FF0346012B04D0D2
:1012E8007B681B681846FFF70AFF7B8803F40073C6
:1012F800002B0CD07B681B681846FFF7ECFE0346F2
:10130800012B04D07B681B681846FFF7C4FE7B8856
:1013180003F48063002B0CD07B681B681846FFF72A
:1013280072FE0346012B04D07B681B681846FFF742
:101338004AFE7B8803F40063002B0CD07B681B6893
:101348001846FFF794FE0346012B04D07B681B6800
:101358001846FFF76CFE00BF0837BD4680BD80B554
:1013680082B000AF78600B467B807B8803F0010376
:10137800002B0CD07B681B681846FFF7DEFD034680
:10138800012B04D17B681B681846FFF7C6FD7B88D4
:1013980003F00203002B0CD07B681B681846FFF78C
:1013A800CDFC0346012B04D17B681B681846FFF768
:1013B800B5FC7B8803F00403002B0CD07B681B680A
:1013C8001846FFF7EEFC0346012B04D17B681B6827
:1013D8001846FFF7D6FC7B8803F00803002B0CD0D7
:1013E8007B681B681846FFF70FFD0346012B04D1E5
:1013F8007B681B681846FFF7F7FC7B8803F010032F
:10140800002B0CD07B681B681846FFF730FD03469D
:10141800012B04D17B681B681846FFF718FD7B88F1
:1014280003F02003002B0CD07B681B681846FFF7DD
:1014380052FC0346012B04D07B681B681846FFF753
:101448003AFC7B8803F04003002B0CD07B681B68B8
:101458001846FFF7A5FD0346012B04D17B681B68DE
:101468001846FFF78DFD7B8803F08003002B0CD016
:101478007B681B681846FFF72DFD0346012B04D136
:101488007B681B681846FFF715FD7B8803F480739B
:10149800002B0CD07B681B681846FFF750FE0346EC
:1014A800012B04D17B681B681846FFF738FE7B8840
:1014B80003F40073002B0CD07B681B681846FFF7F9
:1014C8000AFE0346012B04D17B681B681846FFF708
:1014D800F2FD7B8803F48063002B0CD07B681B68CB
:1014E8001846FFF790FD0346012B04D17B681B6863
:1014F8001846FFF778FD7B8803F40063002B0CD0B7
:101508007B681B681846FFF7B2FD0346012B04D120
:101518007B681B681846FFF79AFD00BF0837BD4671
:1015280080BD000080B582B000AF78600B46FB70CC
:10153800FB78022B06D17B681B6801211846FFF750
:1015480063FB36E07B681B681C4A934218D07B68B3
:101558001B681B4A934213D07B681B68194A934245
:101568000ED07B681B68184A934209D07B681B68B9
:10157800164A934204D07B681B68154A934218D1D7
:10158800FB78032B06D17B681B6804211846FFF7FC
:101598003BFB0EE0FB78042B0BD17B681B68012119
:1015A8001846FFF731FB7B681B6804211846FFF7D4
:1015B8002BFB00BF0837BD4680BD00BF002C014093
:1015C800003401400040014000440140004801400F
:1015D8000050014080B582B000AF78600B46FB70C8
:1015E800FB78022B06D17B681B6801211846FFF7A0
:1015F8001CFB36E07B681B681C4A934218D07B684A
:101608001B681B4A934213D07B681B68194A934294
:101618000ED07B681B68184A934209D07B681B6808
:10162800164A934204D07B681B68154A934218D126
:10163800FB78032B06D17B681B6804211846FFF74B
:10164800F4FA0EE0FB78042B0BD17B681B680121B0
:101658001846FFF7EAFA7B681B6804211846FFF76B
:10166800E4FA00BF0837BD4680BD00BF002C01402A
:10167800003401400040014000440140004801405E
:101688000050014080B582B000AF78600B46FB7017
:10169800FB78022B06D17B681B6810211846FFF7E0
:1016A800B3FA36E07B681B681C4A934218D07B6803
:1016B8001B681B4A934213D07B681B68194A9342E4
:1016C8000ED07B681B68184A934209D07B681B6858
:1016D800164A934204D07B681B68154A934218D176
:1016E800FB78032B06D17B681B6840211846FFF75F
:1016F8008BFA0EE0FB78042B0BD17B681B6810215A
:101708001846FFF781FA7B681B6840211846FFF7E7
:101718007BFA00BF0837BD4680BD00BF002C0140E2
:1017280000340140004001400044014000480140AD
:101738000050014080B582B000AF78600B46FB7066
:10174800FB78022B06D17B681B6810211846FFF72F
:101758006CFA36E07B681B681C4A934218D07B6899
:101768001B681B4A934213D07B681B68194A934233
:101778000ED07B681B68184A934209D07B681B68A7
:10178800164A934204D07B681B68154A934218D1C5
:10179800FB78032B06D17B681B6840211846FFF7AE
:1017A80044FA0EE0FB78042B0BD17B681B681021F0
:1017B8001846FFF73AFA7B681B6840211846FFF77E
:1017C80034FA00BF0837BD4680BD00BF002C014079
:1017D80000340140004001400044014000480140FD
:1017E8000050014080B584B000AF78600023FB60F2
:1017F8007B681B68404A934202D1404BFB600EE075
:101808007B681B683E4A934202D13E4BFB6006E070
:101818007B681B683C4A934201D13C4BFB607B6868
:101828001A68FB681A60FB681B681846FFF7BCF962
:10183800B860BB68002B06D0BB68102B03D0FB68D0
:1018480001221A7102E0FB6800221A71FB681B680A
:10185800294A934218D0FB681B682D4A934213D03B
:10186800FB681B682B4A93420ED0FB681B682A4A08
:10187800934209D0FB681B68284A934204D0FB684E
:101888001B68274A934204D1FB681B681846FFF778
:10189800DEF9FB681B68184A934218D0FB681B687E
:1018A8001B4A934213D0FB681B681A4A93420ED016
:1018B800FB681B68184A934209D0FB681B68174AE3
:1018C800934204D0FB681B68154A934208D17B6891
:1018D8001B681846FFF78CF90346DAB2FB685A71A1
:1018E800FB6800229A71FB680022DA71FB681846CF
:1018F8001037BD4680BD00BF002C01400401002008
:101908000004004090010020000800401C02002054
:1019180000340140004001400044014000480140BB
:101928000050014080B584B000AFF8600B467A6083
:10193800FB72FB7A012B02D07B68002B17D0114B6E
:101948001B78002B13D1F868FFF70DFC0346002B1A
:1019580004D1FB7A012B0AD100230EE07B68002B0F
:1019680002D07B6801221A70064B01221A70FB68AC
:101978001B681846FFF730F9034618461037BD466E
:1019880080BD00BFA802002080B485B000AF786099
:1019980039600023FB7397F90F3018461437BD469A
:1019A8005DF8047B7047000080B584B000AF7860B4
:1019B80039600023FB727B68002B05D1374801F0A2
:1019C800FDFA4FF0FF3365E03B68002B05D1344842
:1019D80001F0F4FA4FF0FF335CE0324BD3E9000139
:1019E8004FF000024FF04043FFF716F80346002B74
:1019F80006D03B68D3E900232A49C1E9002305E062
:101A0800284BD3E900233968C1E90023254BD3E9E2
:101A180000014FF00002244BFEF7FEFF0346002BA7
:101A280002D0224801F0CAFA7B685B681B68204A2A
:101A380013607B685B685B681E4A13607B685B6841
:101A48009B681D4A13607B685B68DB681B4A1360F0
:101A58001B4B00221A6001F02DFF0023FB600023BE
:101A6800FB6007E0174AFB68174942F82310FB6838
:101A78000133FB60FB68012BF4D901F05BFB0346E3
:101A8800FB7297F90B30002B02D1104B01221A7010
:101A980097F90B3018461037BD4680BDB0DD0008F9
:101AA800D4DD0008000000200000F0BF00DE0008C0
:101AB800BC040020C0040020C4040020C804002086
:101AC800CC040020AC02002025390008B90400200D
:101AD80080B586B000AF78600023FB7500233B61BA
:101AE8000023FB732A4B1B78DBB2002B0CBF0123AE
:101AF8000023DBB2BB73274B02221A707B68002BD2
:101B08000BD1234B1B78DBB2002B06D1224B1B7861
:101B1800DBB2002B01D1012300E00023FB7316E0A8
:101B28000A2007F009FB3B6903F51C5310333B619E
:101B38007B68B3F1FF3F05D03A697B689A4201D9C7
:101B4800012300E00023FB73002001F04BFB104B46
:101B58001B78DBB2002B07D10F4B1B78DBB2002BB5
:101B680002D1FB7B002BDBD00A4B03221A70FB7BD4
:101B7800002B01D09C23FB75BB7B002B01D001F00F
:101B8800C7FF97F9173018461837BD4680BD00BF04
:101B9800B7040020B9040020B804002080B586B03E
:101BA80000AF034687ED000BFB810023FB75012383
:101BB800BB754FF000024FF00003D7E90001FEF7B4
:101BC80035FF0346002B05D02E4801F0F7F94FF0FA
:101BD800FF3353E0FB89FF2B08D9FB89FF22194605
:101BE800294801F0EBF94FF0FF3347E0274B1B780A
:101BF800DBB2032B04D0254B1B78DBB2012B02D1BF
:101C0800224B04221A70FB89012B15D8FB89204A24
:101C180052F82330002B0FD002F040FB03467B75AF
:101C28007B7D022B08D1FB89194A52F82330FA89A7
:101C3800104698470346BB75FB897B82FB8918468B
:101C480097ED000B01F0D8F9BB7D002B06D07B8AFD
:101C5800184602F0FBFA0346FB7503E07B8A184638
:101C680002F057FB97F91730002B05D097F917307A
:101C78001946084801F0A2F997F91730184618379D
:101C8800BD4680BD6CDE0008B0DE0008B904002047
:101C9800AC020020F0DE000880B582B000AF00235F
:101CA800FB71002001F09EFA0346FB7197F907309B
:101CB80018460837BD4680BD80B582B000AF002306
:101CC800FB710B4B06221A7001F02AFB0346FB71CD
:101CD8000822002107480CF01BF801F09FFE044B76
:101CE80000221A7097F9073018460837BD4680BD9C
:101CF800B9040020AC02002080B400AF034B1B786D
:101D0800DBB21846BD465DF8047B7047B804002076
:101D180080B400AF034B1B78DBB21846BD465DF8B4
:101D2800047B7047D004002080B483B000AF786093
:101D38007B681B6843F001027B681A6000BF0C37A0
:101D4800BD465DF8047B704780B483B000AF78600F
:101D58007B681B6823F001027B681A6000BF0C37A0
:101D6800BD465DF8047B704780B483B000AF7860EF
:101D780039607B681B6823F004023B681A437B6860
:101D88001A6000BF0C37BD465DF8047B704780B40D
:101D980083B000AF78607B681B6803F004031846C3
:101DA8000C37BD465DF8047B704780B483B000AF44
:101DB800786039607B683A681A6300BF0C37BD46A3
:101DC8005DF8047B704780B483B000AF78607B68AF
:101DD8005B6943F001027B685A6100BF0C37BD465E
:101DE8005DF8047B704780B483B000AF78607B688F
:101DF8001B6918460C37BD465DF8047B7047000028
:101E080080B485B000AF78607B681B689A68074B20
:101E18001340FB60FB68062B0CBF01230023DBB2D9
:101E280018461437BD465DF8047B7047070001006B
:101E380080B584B000AF78600B46FB707B681B6888
:101E48001846FFF7A4FFF860FB78002B23D07B68C7
:101E58001B68374A934218D07B681B68354A9342FF
:101E680013D07B681B68344A93420ED07B681B688A
:101E7800324A934209D07B681B68314A934204D0A6
:101E88007B681B682F4A934205D17B681B68002139
:101E98001846FFF78AFFFB68042B11D07B681B6884
:101EA80004211846FFF760FF7B681B681846FFF798
:101EB8008AFF7B681B68F9681846FFF755FF04E03E
:101EC8007B681B681846FFF77EFF7B681B6818460F
:101ED800FFF72AFFFB78002B25D07B681B68144A84
:101EE800934218D07B681B68124A934213D07B68D0
:101EF8001B68114A93420ED07B681B680F4A9342B5
:101F080009D07B681B680E4A934204D07B681B6823
:101F18000C4A934207D17B681A687B685B7919463B
:101F28001046FFF742FF00BF1037BD4680BD00BF17
:101F3800002C0140003401400040014000440140B1
:101F4800004801400050014080B582B000AF786081
:101F58007B681B681846FFF7F7FE00BF0837BD46C9
:101F680080BD80B483B000AF78607B6801221A71AD
:101F78007B6801221A6000BF0C37BD465DF8047B00
:101F88007047000080B584B000AF78600948FFF75B
:101F98002AFFF860FB6803F40053002B14BF0123E9
:101FA8000023DBB21A467B681A7000BF1037BD46A3
:101FB80080BD00BF0008004880B483B000AF7860DF
:101FC8007B684FF0FF329A6100BF0C37BD465DF861
:101FD800047B7047B0B58AB000AF87ED060B87ED7C
:101FE800021B39617A603B600346FB753B684FF022
:101FF800FF329A613B685B7F002B0DD13968D7E9C6
:102008000223C1E900233B6801225A773B68012279
:102018009A773B680122DA773B68D3E90023D7E94E
:102028000201FEF7D9F802460B46C7E908234FF02C
:1020380000024FF08043D7E90601FEF7AFFB0246E6
:102048000B46144683F0004522462B46D7E9080183
:10205800FEF7F6FC0346002B13D0D7E90623D7E991
:102068000801FEF7BBF802460B46104619464FF02A
:102078000002304BFEF7B2F802460B46C7E90823C8
:1020880023E04FF000024FF08043D7E90601FEF746
:1020980085FB02460B46D7E90801FEF7DBFC034641
:1020A800002B12D0D7E90623D7E90801FEF794F8E8
:1020B80002460B46104619464FF000021D4BFEF72C
:1020C8008BF802460B46C7E90823FB7D002B05D099
:1020D8003B68D3E904233968C1E902233B68D3E9A3
:1020E8000401D7E90823FEF779F802460B46396858
:1020F800C1E904233B68D3E904013B68D3E902231F
:10210800FEF76AF802460B46C7E908233968D7E99B
:102118000223C1E900237968D7E90823C1E900232C
:102128003969D7E90823C1E9002300BF2837BD462C
:10213800B0BD00BF0000F03F80B5A6B000AF78602A
:102148007B6801225A60204BBB6000233B7300234D
:102158007B7307F108031846FFF744FB02467B68C8
:10216800DA607B68DB6800211846FFF716F802235F
:1021780087F897307B68DB6897F8972011461846F0
:10218800FFF7D0F97B68DB6897F897201146184667
:10219800FFF778FA7B68DB681846FFF731FE0346DD
:1021A80087F8963097F89630002B05D17B68DB6866
:1021B80000211846FFF73CFE7B6801221A7200BF17
:1021C8009837BD4680BD00BF0004004080B5A6B06A
:1021D80000AF78607B6801225A60204BBB60002307
:1021E8003B7300237B7307F108031846FFF7FAFADD
:1021F80002467B68DA607B68DB6800211846FEF7D8
:10220800CCFF022387F897307B68DB6897F8972024
:1022180011461846FFF786F97B68DB6897F8972020
:1022280011461846FFF72EFA7B68DB681846FFF759
:10223800E7FD034687F8963097F89630002B05D1CE
:102248007B68DB6800211846FFF7F2FD7B680122F6
:102258001A7200BF9837BD4680BD00BF002C0140F0
:1022680080B5A6B000AF78607B6801225A60204B29
:10227800BB6000233B7300237B7307F108031846F8
:10228800FFF7B0FA02467B68DA607B68DB680021FA
:102298001846FEF782FF022387F897307B68DB68D1
:1022A80097F8972011461846FFF73CF97B68DB68DA
:1022B80097F8972011461846FFF7E4F97B68DB6822
:1022C8001846FFF79DFD034687F8963097F8963035
:1022D800002B05D17B68DB6800211846FFF7A8FDB5
:1022E8007B6801221A7200BF9837BD4680BD00BFC7
:1022F80000080040000000002DE990438DB000AFB9
:102308004FF09040FFF76FFDF862FB6A03F002039D
:10231800002B14BF01230023DBB21A46844B83F839
:1023280055204FF09040FFF75EFDF862FB6A03F01E
:102338001003002B14BF01230023DBB21A467C4B89
:1023480083F854207A4B93F855301A46784B93F813
:102358005430D31ABB62BB6AB3F1FF3F20D1754B2F
:10236800D3E91A014FF000024FF00003FEF754FBC7
:102378000346002B14D16F4BD3E918014FF000022C
:102388006D4BFDF72BFF02460B466A49C1E918233E
:1023980068494FF000024FF08043C1E91A2322E058
:1023A800BB6A012B1FD1634BD3E91A014FF000021E
:1023B8004FF00003FEF730FB0346002B13D15D4BB3
:1023C800D3E918014FF000025B4BFDF705FF024609
:1023D8000B465849C1E9182356494FF000024FF0FF
:1023E8008043C1E91A23524B93F85530002B0CBF98
:1023F80001230023DBB287F827304D4B93F8543084
:10240800002B0CBF01230023DBB287F8263097F896
:102418002730002B0AD097F82630002B06D04549E4
:102428004FF000024FF00003C1E91A23BB6A012BE9
:102438001FD1404BD3E91A014FF000024FF00003BF
:10244800FEF7EAFA0346002B13D03A4BD3E91801FA
:102458004FF00002384BFDF7C1FE02460B463549E6
:10246800C1E9182333494FF00002344BC1E91A235C
:1024780022E0BB6AB3F1FF3F1ED12E4BD3E91A010C
:102488004FF000024FF00003FEF7C6FA0346002B98
:1024980012D0284BD3E918014FF00002264BFDF764
:1024A8009BFE02460B462349C1E9182321494FF0F8
:1024B8000002214BC1E91A231D4B93F85530002B1C
:1024C8000AD01B4B93F85430002B05D019494FF014
:1024D8000002194BC1E91A23164BD3E918231449F2
:1024E800C1E90E23BB6AB3F1FF3F29D1114BD3E9F0
:1024F8001E014FF000024FF00003FEF78DFA03466D
:10250800002B1DD10B4BD3E91C014FF000020A4BE5
:10251800FDF764FE02460B460649C1E91C2305493E
:102528004FF000024FF00003C1E91E232BE000BF6B
:10253800B8020020180300200000F03F0000F0BFA0
:10254800BB6A012B1FD19C4BD3E91E014FF000023F
:102558004FF00003FEF760FA0346002B13D1964BA9
:10256800D3E91C014FF00002944BFDF735FE0246FB
:102578000B469149C1E91C238F494FF000024FF0E7
:102588000003C1E91E238E4B93F85530002B0AD067
:102598008B4B93F85430002B05D087494FF000023D
:1025A800864BC1E91E23844BD3E91C238449C1E926
:1025B8001023BB6AB3F1FF3F20D17F4BD3E914014D
:1025C8004FF000024FF00003FEF726FA0346002BF7
:1025D80014D1794BD3E912014FF00002774BFDF784
:1025E800FDFD02460B467449C1E9122372494FF0BA
:1025F80000024FF08043C1E9142322E0BB6A012B9B
:102608001FD16D4BD3E914014FF000024FF00003C6
:10261800FEF702FA0346002B13D1674BD3E91201E8
:102628004FF00002654BFDF7D7FD02460B466249A5
:10263800C1E9122360494FF000024FF08043C1E91D
:102648001423BB6AB3F1FF3F1FD15B4BD3E91401DD
:102658004FF000024FF00003FEF7DEF90346002BAF
:1026680013D0554BD3E912014FF00002534BFDF73D
:10267800B5FD02460B465049C1E912234E494FF0B9
:102688000002504BC1E9142321E0BB6A012B1ED183
:10269800494BD3E914014FF000024FF00003FEF755
:1026A800BBF90346002B12D0434BD3E912014FF07C
:1026B8000002424BFDF790FD02460B463E49C1E938
:1026C80012233D494FF000023E4BC1E914233C4B15
:1026D80093F854301A463A4B93F85530D31ABB62E4
:1026E800BB6A012B20D1344BD3E916014FF000020D
:1026F8004FF00003FEF790F90346002B14D12E4B40
:10270800D3E912014FF000022C4BFDF767FD02469A
:102718000B462949C1E9122327494FF000024FF01F
:102728008043C1E9162323E0BB6AB3F1FF3F1FD101
:10273800214BD3E916014FF000024FF00003FEF7DA
:102748006BF90346002B13D11B4BD3E912014FF051
:1027580000021A4BFDF740FD02460B461649C1E937
:10276800122315494FF000024FF08043C1E91623A8
:10277800BB6A012B28D1104BD3E916014FF0000298
:102788004FF00003FEF748F90346002B1CD00A4B14
:10279800D3E912014FF00002084BFDF71FFD024676
:1027A8000B460549C1E9122303494FF00002054BC6
:1027B800C1E916232BE000BF180300200000F03FFA
:1027C800B80200200000F0BFBB6AB3F1FF3F1ED182
:1027D800AD4BD3E916014FF000024FF00003FEF7AE
:1027E8001BF90346002B12D0A74BD3E912014FF077
:1027F8000002A64BFDF7F0FC02460B46A249C1E9D0
:102808001223A1494FF00002A14BC1E9162397F802
:102818002730002B11D097F82630002B0DD09A497D
:102828004FF000024FF00003C1E9142396494FF01E
:1028380000024FF00003C1E91623964B93F8553078
:10284800002B10D0934B93F85430002B0BD08E49AB
:102858004FF000028D4BC1E914238B494FF0000261
:102868008A4BC1E91623884BD3E912238949C1E968
:102878000C238948FFF786FB834BDB680022002185
:102888001846FFF74FF80346824A9364814B93F842
:1028980056207D4B93F880309A428CBF0123002349
:1028A800DBB21C467B4B9B6C1846FDF7D3FD80467C
:1028B800894607F1100207F11801784B49EC118B92
:1028C80020469FED6D0BFFF785FBD7E904016CA34C
:1028D800D3E90023FDF738FE02460B466D49C1E9EE
:1028E8000023D7E906014FF000026D4BFDF72CFEDF
:1028F80002460B46C7E90623D7E90601624BD3E92E
:102908000C23FDF769FC02460B466249C1E9022324
:102918006448FFF737FB5C4BDB6A0022002118464E
:10292800FFF700F803465B4A13655A4B93F85820A3
:10293800554B93F881309A428CBF01230023DBB2B8
:102948001C46544B1B6D1846FDF784FD804689468E
:1029580007F1080207F11001534B49EC118B20468F
:102968009FED450BFFF736FBD7E9020144A3D3E9F6
:102978000023FDF7E9FD02460B464649C1E9042359
:10298800D7E904014FF00002454BFDF7DDFD024693
:102998000B46C7E90423D7E904013B4BD3E90E23CF
:1029A800FDF71AFC02460B463A49C1E906233F489F
:1029B800FFF7E8FA344BDB69002200211846FEF7DE
:1029C800B1FF0346334AD364324B93F857202E4B5A
:1029D80093F882309A428CBF01230023DBB21C4655
:1029E8002C4BDB6C1846FDF735FD804689463A4688
:1029F80007F108012E4B49EC118B20469FED1E0B69
:102A0800FFF7E8FAD7E900011DA3D3E90023FDF792
:102A18009BFD02460B461F49C1E90823D7E902017D
:102A28004FF000021E4BFDF78FFD02460B46C7E92B
:102A38000223D7E90201144BD3E91023FDF7CCFB9D
:102A480002460B461349C1E90A23124B93F8562054
:102A58000D4B83F88020D7E906230B49C1E90C23E5
:102A68000C4B93F85820084B83F88120D7E90423AE
:102A78000549C1E90E231DE0000000000000A04048
:102A880065732D3852C1D03F180300200000F03F75
:102A98000000F0BFB80200200E030020A0030020B1
:102AA8000000594010030020F00300200F0300200D
:102AB800C8030020104B93F85720104B83F882204E
:102AC800D7E902230D49C1E910230D4B9A6A013257
:102AD8009A629B6A1846FDF7BDFC094BD3E90C23A3
:102AE800074CFDF731FD02460B46C4E9082300BF39
:102AF8003437BD46BDE89083B80200201803002093
:102B0800180400200000000080B500AF52494FF0C3
:102B18000002524BC1E90E234F494DA3D3E90023CC
:102B2800C1E90C234C4B4E4A9A604B4B4D4ADA6034
:102B3800494B4D4A1A61484B4C4A5A61464B4C4ADC
:102B48005A604B4B4B4A1A604A4B4B4A1A60494BE6
:102B5800494A5A60474B484A9A60464B464ADA60A7
:102B6800444B454A1A61434B434A5A61414B424AD6
:102B78009A61404B404ADA613E4B3F4A1A623D4BEC
:102B88003D4A5A623B4B3C4A9A623A4B3A4ADA62AD
:102B9800384B394A1A63374B374A5A63354B364AEA
:102BA8009A632D4A2C4B5B6818329A602A4A2A4B42
:102BB8005B6808325A60284A274B5B682032DA6023
:102BC8002E494FF000022E4BC1E91A232B494FF032
:102BD80000022B4BC1E91E2328494FF00002284B65
:102BE800C1E9142325494FF00002254BC1E91623FA
:102BF8002448FFF7E1F92448FFF7DEF92348FFF7F7
:102C0800DBF92348FFF7ADF91C4B00225A601B4B38
:102C180000221A701948FFF78FFA1E48FFF7A1F92A
:102C2800164B00225A62154B002283F820201A48BE
:102C3800FFF7CCFA1948FFF794F9104B00225A61B4
:102C48000E4B00221A741648FFF70AFB00BF80BD1E
:102C58007B14AE47E17A843F180400200000F0BFDF
:102C68007093B6E4E10E90EB99944D0C3FFCF4C2DE
:102C780060040020740400203C06010818030020AA
:102C88000000F03FA0030020F0030020C80300204C
:102C9800C00300201004002038030020E8030020AF
:102CA8002803002080B582B000AF424B1B78002B70
:102CB80025D1404B01221A703E4B5B68012B1ED177
:102CC8003C4B1B7A002B1AD03A4BDB681846FFF7AF
:102CD8003BF9384BDB6800211846FEF740FB02231E
:102CE800FB71344BDB68FA7911461846FEF772FC23
:102CF800304BDB68FA7911461846FEF71BFD2D4B61
:102D080093F82030002B27D12A4B012283F820206A
:102D1800284B5B6A012B1FD1264B93F82830002BD8
:102D28001AD0244BDB6A1846FFF70EF9214BDB6AF1
:102D380000211846FEF713FB0223FB711D4BDB6ACB
:102D4800FA7911461846FEF745FC1A4BDB6AFA7900
:102D580011461846FEF7EEFC164B1B7C002B25D1BE
:102D6800144B01221A74134B5B69012B1ED1114BB2
:102D78001B7E002B1AD00F4BDB691846FFF7E4F8CF
:102D88000C4BDB6900211846FEF7E9FA0223FB71B8
:102D9800084BDB69FA7911461846FEF71BFC054B10
:102DA800DB69FA7911461846FEF7C4FC00BF0837FC
:102DB800BD4680BD1803002080B582B000AF4FF03B
:102DC80000024FF00003C7E90023164B1B785A1C7A
:102DD800D1B2144A1170002B09D0134B01221A608A
:102DE800104B1B78013BDAB20E4B1A7016E062B634
:102DF80000BF0E4B1B68D3E90823C7E90023FFF780
:102E08007BFA97ED000B0020FEF7C8FE72B600BFF4
:102E1800044B1B78013BDAB2024B1A700837BD46E7
:102E280080BD00BFB4040020B004002038060108AB
:102E380080B586B000AF786039605A4B7B615A4BD9
:102E48003B610023FB73594B00221A70584B002238
:102E58001A7001DF09F040FE08F0B0FB06F084F9B3
:102E680008F078FE08F05CFE08F00CFC08F042FD63
:102E780008F0ACFC08F0C8FD4E4B1B6800221A6035
:102E880000210020FEF780FD0346FB7397F90F3001
:102E9800002B02D097F90F3080E0FFF735FE72B6AD
:102EA80000BF62B600BF434B1B685A68414B1B68A2
:102EB800383319461046FEF777FD0346FB7397F93A
:102EC8000F30002B0DD14FF0FF30FEF701FEFEF75B
:102ED80013FF0346002B04D0364B1B68012283F8EE
:102EE800402072B600BF97ED050A06F02FFAFEF7EC
:102EF8000FFF0346002B0CD1FEF7FEFE0346002B06
:102F080007D12C4B1B6893F84030002B01D10123CB
:102F180000E00023DAB2264B1A7062B600BF62B630
:102F280000BF2FE0FEF7B8FE0346FB73FEF7F0FE86
:102F38000346002B0AD1FEF7DFFE0346002B05D11E
:102F48001C4B1B6893F84030002B01D0012300E094
:102F58000023DAB2154B1A70144B1B78DBB2002B26
:102F68000CBF01230023DBB21A46114B1A700F4B1A
:102F78001B78DBB2002B05D00F4B1B680E4A23F0E1
:102F8800010313600A4B1B78DBB2002BCAD1FFF791
:102F980089FEFEF791FE72B600BF00231846183767
:102FA800BD4680BD0AD7233C00002A43B504002053
:102FB800B60400203806010810E000E00FB480B421
:102FC80000AF00BFBD465DF8047B04B0704780B415
:102FD80085B000AFF860B9607A60FB68BA681A60BB
:102FE800FB6804337A681A6000BF1437BD465DF881
:102FF800047B704700000000F0B58BB000AF87ED90
:10300800020B0346FB80FB88002B77D14FF00002B0
:10301800414BD7E90201FDF797FA02460B46C7E98B
:1030280006239FED391B97ED060B0AF057FB53EC6F
:10303800102B10461946FDF737FD03467B61002328
:103048007B6233A3D3E90023D7E90601FDF70CFD22
:103058000346002B0ED02EA3D3E90023D7E906019F
:10306800FDF79CFB02460B4610461946FDF71CFD72
:1030780003467B627A6A79692848FFF7A8FF284BDC
:10308800D3E900014FF00002264BFDF7C5FC0346CB
:10309800002B2ED1224BD3E900014FF000024FF054
:1030A8004043FDF7B9FC0346002B22D11C4BD3E962
:1030B8000001D7E90223FDF78FF802460B461446B4
:1030C8001D464FF00002184BD7E90201FDF73CFA04
:1030D80002460B4601210E4620462946FDF7A6FC6E
:1030E8000346002B01D100231E46F3B21A460F4BAC
:1030F8001A700F49D7E90223C1E9002300BF2C3712
:10310800BD46F0BDAFF30080000000000000F041B4
:103118000000E0FFFFFFEF4100408F40E80400207F
:10312800000000200000F0BF0000B03CD0040020E8
:10313800F004002080B584B000AF0023BB600023FA
:103148007B600023FB7323494FF000024FF000031C
:10315800C1E9002320494FF000024FF00003C1E904
:1031680000233A1D07F108031146184605F0B6FF7B
:10317800BB687A681146184604F0D2F80346FB7318
:1031880097F90F30002B05D01448FFF717FF97F970
:103198000F301AE03A1D07F108031146184605F0EA
:1031A800B4FFBB687A681146184600F053FF03461F
:1031B800FB7397F90F30002B05D097F90F3019469C
:1031C8000748FFF7FBFE97F90F3018461037BD4642
:1031D80080BD00BFD8040020E00400206CE0000897
:1031E80094E0000880B584B000AF0346FB7100236B
:1031F800FB730023BB73002005F09EFF00237B7345
:1032080004F05CFA0346FB7397F90F30002B0DD0DE
:1032180097F90F3013F1020F08D097F90F301946BC
:103228003C48FFF7CBFE0123BB730BE07B7B002BF5
:1032380004D197F90F3013F1020F01D0012300E0F8
:1032480000237B73BB7B002B21D100F035FF0346A5
:10325800FB7397F90F30002B0DD097F90F3013F14E
:10326800020F08D097F90F3019462B48FFF7A6FE32
:103278000123BB730BE07B7B002B04D197F90F3044
:1032880013F1020F01D0012300E000237B73BB7B05
:10329800002B21D104F09CF90346FB7397F90F30FA
:1032A800002B0DD097F90F3013F1020F08D097F9C2
:1032B8000F3019461948FFF781FE0123BB730BE055
:1032C8007B7B002B04D197F90F3013F1020F01D04B
:1032D800012300E000237B73FB79002B0DD0002035
:1032E80005F02AFFBB7B002B02D17B7B002B01D191
:1032F800012300E00023BB7301E00123BB73BB7B08
:10330800002B3FF47BAF97F90F3018461037BD46B6
:1033180080BD00BFBCE00008F4E0000824E100081C
:1033280080B582B000AF0023BB70394B1B78DBB28D
:10333800002B02D0002000F0DDFF00F0AFFF0346B5
:10334800FB7000237B600EE00A2005F0F5FE7B6829
:1033580003F51C5310337B600120FFF743FF00F097
:103368009DFF0346FB707B682A4A934202D8FB788C
:10337800002BE9D100F09EFF0346BB7097F902309D
:10338800002B05D097F9023019462348FFF716FE9F
:1033980004F00EFB0346BB7097F90230002B05D0F2
:1033A80097F9023019461D48FFF708FE1C4B00220A
:1033B8001A701C4B00221A701B4B00221A601B4B00
:1033C80000221A601A4B00221A601A4B00221A6057
:1033D800194B00221A6019494FF000024FF0404380
:1033E800C1E900230A4B00221A7008220021144860
:1033F8000AF08EFC13494FF000024FF00003C1E9B8
:10340800002397F9023018460837BD4680BD00BF33
:10341800D0040020FF2C31015CE1000878E10008AD
:10342800B7040020B8040020BC040020C004002019
:10343800C4040020C8040020CC04002000000020A0
:10344800E8040020F004002080B586B000AF614B8E
:103458001B687B617B69002B00F0B8805E4B1B7892
:10346800DBB2002B04D15B4B1B68002B00F0AE8055
:103478005A4B1B78DBB2022B40F0A880584B1B78C4
:10348800002B40F0A3807B69D3E90023C7E902231E
:10349800544B1B78002B00F08A80534B1B78DBB20F
:1034A800002B04D0504B1B78DBB2022B01D1012337
:1034B80000E00023FB714C4B1B78DBB2012B04D0DE
:1034C800494B1B78DBB2022B01D1012300E000231A
:1034D800BB71FB79002B33D0444BD3E90023D7E9E8
:1034E8000201FDF7B7FA0346002B0AD0404BD3E997
:1034F80000013E4BD3E90023FDF798FA0346002B61
:1035080014D13A4BD3E90023D7E90201FDF7ACFA0D
:103518000346002B14D0364BD3E90001334BD3E9D3
:103528000023FDF779FA0346002B09D0314B1B68BD
:10353800002B02D1304B01221A70294B01221A703C
:10354800BB79002B33D0294BD3E90023D7E90201FB
:10355800FDF76CFA0346002B0AD0254BD3E900018E
:10356800224BD3E90023FDF775FA0346002B14D14B
:103578001E4BD3E90023D7E90201FDF74DFA0346B4
:10358800002B14D01A4BD3E90001184BD3E90023C0
:10359800FDF76AFA0346002B09D0164B1B68002B6F
:1035A80002D1154B01221A700D4B01221A700C4BD7
:1035B8001B78002B0CBF01230023DBB21A46094BF2
:1035C8001A700B49D7E90223C1E9002300BF183755
:1035D800BD4680BDFC040020000500201C0500201D
:1035E8002B050020280500201805002008050020CC
:1035F80020050020140500202A05002080B582B08F
:1036080000AF0023FB719E4B1B78DBB2002B18D157
:103618009C4B00221A709C4B00221A709B4B1B7803
:10362800DBB2002B2DD0964B02221A70974B00224A
:103638001A70974B1B78DBB2002B22D10123FB7148
:103648001FE0924B00221A708E4B1B78DBB2002BC6
:1036580009D0904B00221A70894B00221A70894BAE
:1036680000221A700DE08A4B1B78DBB2002B02D1C6
:103678000123FB7105E0844B1B78FB71824B002210
:103688001A707F4B1B78DBB2042B00F2D78001A2A3
:1036980052F823F0B1360008EB370008CB360008A3
:1036A8009F37000829370008784B1B78DBB2002BBE
:1036B80000F0D880724B02221A70744B00221A70E4
:1036C800D0E0FB79002B00F0CF80734B1B68002BF8
:1036D8000DDD6F4B1B78DBB2012B08D16E4B1B68DD
:1036E8001A466E4B1A60664B03221A70BCE06C4B8C
:1036F8001B68002B0AD0674B01221A70684B1B68A5
:10370800664A13605E4B04221A70ADE06548FFF705
:1037180055FC604B00221A70594B00221A70A3E026
:103728005E4B1B68002B04D05C4B1B68013B5B4A5B
:1037380013605A4B1B68002B40F098805A4B1B783B
:10374800DBB2012B06D1534B00221A704C4B0022DE
:103758001A708BE0554B1B68002B0AD04D4B00228A
:103768001A70524B1B684D4A1360454B01221A7060
:103778007CE0FB79002B07D0494B1B68474A136054
:103788003F4B04221A7071E0424B00221A703C4BE6
:1037980002221A706AE0414B1B68002B04D03F4B91
:1037A8001B68013B3D4A13603C4B1B68002B5FD1F3
:1037B8003B4B1B68002B0AD0364B01221A70384B42
:1037C8001B68364A13602E4B04221A7050E03548A5
:1037D800FFF7F4FB2F4B00221A70294B00221A70B6
:1037E80046E02E4B1B68002B04D02C4B1B68013B7A
:1037F8002A4A1360294B1B68002B3BD1FB79002B0D
:1038080018D0274B1B68002B0AD0224B01221A70B4
:10381800234B1B68214A1360194B04221A7029E0B4
:103828002048FFF7CBFB1B4B00221A70144B0022D9
:103838001A701FE0124B02221A701BE0104B1B7803
:10384800DBB219461A48FFF7B9FB124B00221A706F
:103858000D4B00221A700B4B00221A70084B0022E5
:103868001A7008E000BF06E000BF04E000BF02E0F5
:1038780000BF00E000BF00BF0837BD4680BD00BFE5
:103888001C050020190500202B0500200C00002035
:103898001A0500202A050020140500202C05002008
:1038A800080000209CE100081B05002010050020EE
:1038B800C4E1000880B400AF10494FF000024FF097
:1038C8000003C1E900230E4B00221A700D4B1B7830
:1038D800DAB20D4B1A700D4B00221A700C4B0022F5
:1038E8001A700C4B00221A600B4B00221A7000232E
:1038F8001846BD465DF8047B704700BF20050020D0
:10390800280500201A050020290500202A05002086
:103918002B0500202C0500201C05002080B584B054
:1039280000AF0346FB80FB88002B3FD1314B1B784F
:10393800DAB2314B1B789A4214BF01230023DBB261
:10394800FB732C4B1B78DAB22B4B1A70FB7B002BCA
:103958000BD02A4B00221A70294B00221A70294BCF
:1039680000221A60284B00221A70224B1B78DBB207
:10397800012B1BD1244B1B78DBB2002B04D1234B2A
:103988001B78DBB2002B08D11F4B1B78DBB2012B55
:103998000CD11C4B1B68012B08D11A4B00221A6052
:1039A8001A4B00221A70184B02221A70114B1B78FE
:1039B800DBB2012B07D1164B1B889BB2FA889A42BF
:1039C80001D1FFF741FDFB88002B05D1FFF716FE5B
:1039D800104B00221A7006E00E4B1B78002B02D009
:1039E8000D4B1B7801E0054B1B7818461037BD4678
:1039F80080BD00BF1A050020290500202A050020E7
:103A08002B0500202C0500201C0500200C000020A0
:103A1800F8040020310500203005002080B400AFF4
:103A280026494FF000024FF00003C1E90023244B60
:103A380000221A70234B00221A70234B00221A709E
:103A4800224B00221A80224B00221A70214B00229E
:103A58001A70214B00221A60204B00221A70204B4A
:103A680000221A701F4B00221A601F4B00221A7086
:103A78001E494FF000024FF00003C1E900231C4B20
:103A88004FF47A721A601B4B00221A601A4B0022FC
:103A98001A601A4B00221A70194B01221A70194B1E
:103AA80000221A70184B00221A70184B00221A7044
:103AB80000231846BD465DF8047B704720050020AA
:103AC800280500201C05002029050020F8040020F6
:103AD8002A0500202B0500202C0500203005002099
:103AE80031050020FC040020000500200805002006
:103AF80008000020100500201405002018050020EB
:103B08000C000020190500201A0500201B050020C4
:103B180080B400AF174B1B78DBB2002B25D1164BB6
:103B28001B78DBB2002B0BD0144B1B78DBB2002BBD
:103B380006D1134B01221A70124B01221A7014E09D
:103B48000E4B1B78DBB2002B0BD00B4B1B78DBB278
:103B5800002B06D10A4B00221A700A4B01221A7058
:103B680003E0084B00221A70FFE700BFBD465DF86E
:103B7800047B70471A0500200C000020190500205E
:103B8800300500203105002080B586B000AFF86010
:103B9800B9607A603B600023FB7503F0FDFE386175
:103BA800FB681B68184604F00DF90021386803F01B
:103BB8006BFE0246BB681A6003F056FE02467B683D
:103BC8001A60BB681B68002B0FD0BB681B681946BE
:103BD800386904F0FDFB0246FB681A60FB681B6845
:103BE800002B04D1F623FB7501E0F823FB7597F948
:103BF800173018461837BD4680BD000080B584B020
:103C080000AFF860B9607A60FA68BB6813441B7843
:103C180019460848FFF7D2F9FB68002B02D0F8686C
:103C280004F0D0F87B6800221A6000231846103789
:103C3800BD4680BDE8E1000880B584B000AFF860FB
:103C4800B9607A60FA68BB6813441B78194606485D
:103C5800FFF7B4F97B6802221A604FF0FF33184669
:103C68001037BD4680BD00BF44E2000880B485B06F
:103C780000AF03460A46FB711346BB710523FB736D
:103C8800FB79F02B02D90023FB7322E0FB79E32BAD
:103C980005D9FB79F02B02D80123FB7319E0FB79D6
:103CA800D22B02D9FB79E22B08D9FB79C02B08D19A
:103CB800BB79002B05D0BB79022B02D80223FB73FA
:103CC80007E0FB79C72B04D9FB79D22B01D8032352
:103CD800FB73FB7B18461437BD465DF8047B7047C1
:103CE80080B58CB000AFF860B9607A603B60FB6863
:103CF800BB62BB6A1B7887F82730002387F82F3010
:103D080097F82730C02B06D1BB68012B03D9BB6AB3
:103D18005B7887F82F30364B1B78002B3ED097F80E
:103D28002F2097F8273011461846FFF79FFF0346C4
:103D3800FB76002387F82E30FB7E052B23D0FB7EF5
:103D48002C4A52F823307B6100233B617B69002BAE
:103D580019D097F827207B691046984738613B6946
:103D6800002B14BF01230023DBB287F82E3097F80D
:103D78002E30002B07D03B695A687B681A603B6974
:103D88009A683B681A6097F82E30002B2CD17B6814
:103D9800194A1A603B68194A1A6025E097F82730D3
:103DA800FF2B1BD1134B1B683B627B6800221A60F8
:103DB8003B6800221A603B6A002B15D03B6AFF2043
:103DC8009847F861FB69002B0ED0FB695A687B683D
:103DD8001A60FB699A683B681A6005E07B68084AC4
:103DE8001A603B6800221A6000BF3037BD4680BDAC
:103DF8003305002038050020413C0008D13E00086A
:103E0800053C000880B483B000AF0346FB71044A48
:103E1800FB79137000BF0C37BD465DF8047B704713
:103E28003305002080B400AF034B1B781846BD460D
:103E38005DF8047B704700BF3405002080B483B070
:103E480000AF0346FB71064B1A78FB791343DAB2CD
:103E5800034B1A7000BF0C37BD465DF8047B7047F2
:103E68003405002080B483B000AF0346FB7197F996
:103E78000730DB435AB2074B1B785BB213405BB287
:103E8800DAB2044B1A7000BF0C37BD465DF8047BEC
:103E9800704700BF3405002080B400AF034B1B7887
:103EA8001846BD465DF8047B704700BF3505002005
:103EB80080B400AF034B1B881846BD465DF8047BF1
:103EC800704700BF3605002080B586B000AF0346B6
:103ED800B9607A60FB7397F90F30002B05D1BB6886
:103EE8003B613B69FF221A7076E0BB687B617B69A6
:103EF800FE221A7097F90F3010330F2B62D801A2E7
:103F080052F823F0C53F0008BD3F0008B53F000840
:103F1800AD3F0008A53F00089D3F00088D3F000801
:103F2800953F0008853F00087D3F0008753F000861
:103F38006D3F0008553F00084D3F00085D3F0008F1
:103F4800653F00087B6930225A7045E07B69292269
:103F58005A7041E07B6922225A703DE07B69202239
:103F68005A7039E07B6900225A7035E07B69232258
:103F78005A7031E07B6921225A702DE07B69112249
:103F88005A7029E07B6927225A7025E07B692A222A
:103F98005A7021E07B6910225A701DE07B69242247
:103FA8005A7019E07B6928225A7015E07B6926222D
:103FB8005A7011E07B6931225A700DE07B69332217
:103FC8005A7009E097F90F3019460548FEF7F6FFD1
:103FD8007B6920225A70FFE700BF1837BD4680BDB5
:103FE80074E2000880B487B000AF0346B9607A6015
:103FF800FB7300237B61BB68002B23D000233B614C
:1040080000233B6117E03A6913465B0013449B00A9
:104018001A46BB6813441B78FA7B9A4208D13A695E
:1040280013465B0013449B001A46BB6813447B612C
:104038003B6901333B613A697B689A4202D27B69EA
:10404800002BE0D07B6918461C37BD465DF8047B21
:104058007047000080B582B000AF78603960134BBC
:104068001B78002B05D01248FEF7A8FF6FF00B0352
:1040780018E000F07BFC00F085FC03460D4A136055
:1040880002F052FA02F06CFA03460A4A936003F00F
:1040980045F803F04DF80346064A5360034B0122E6
:1040A8001A70002318460837BD4680BD3205002027
:1040B800B8E200083805002080B58CB002AF0023B4
:1040C80087F82730002387F826300023FB61002378
:1040D800BB6100237B6100233B610023FB6000235D
:1040E8003B620023BB6000237B60554B1B78002B91
:1040F80005D15448FEF762FF6FF008039BE007F113
:10410800140007F1180207F11C0107F110030093CE
:104118000346002003F012FB034687F8273097F97F
:104128002730002B09D097F9273013F1040F04D05A
:1041380097F9273013F1050F71D1FB69002B05D0D2
:104148007A693B691A44BB699A4203D9F82387F80C
:10415800273067E0FA697B6913443B6239693B1D84
:1041680007F10802386AFFF7BBFDBB68002B09D1CD
:104178003B6A1B7819463448FEF720FFF42387F87A
:1041880027304FE0BB68F869796907F10C02984756
:10419800034687F826307B68002B3DD0FB68002B50
:1041A8003AD0002387F827303A69FB689A420BD245
:1041B800FB6807F1140207F1180107F11C00FFF76B
:1041C800E3FC034687F827303B691A460021386A22
:1041D80009F09EFD97F92730002B1DD1FA697B69FC
:1041E80013443B627B68FA6897F92600396A984756
:1041F800F969B8697B69FA680192009303460A462F
:104208004FF6FF71012003F041F9034687F8273084
:1042180097F92730002B04D197F927300BE000BF1E
:1042280000E000BFFB69002B03D0FB69184603F0D0
:10423800C9FD97F9273018462837BD4680BD00BF0D
:1042480032050020E8E2000810E3000880B584B0D9
:1042580000AF0346FB800023FB730023BB600D4BBC
:104268001B78002B05D10C48FEF7A8FE6FF0080359
:104278000CE004F0C9FFB860FB880022B968184652
:1042880002F06CFB0346FB7397F90F3018461037A2
:10429800BD4680BD3205002040E3000880B400AF71
:1042A800034B1B781846BD465DF8047B704700BF7A
:1042B8003305002080B500AF0B4B1B78002B02D1D3
:1042C8000A48FEF77BFE02F04FFF02F0F1FD00F016
:1042D80075FB10220021064809F01AFD024B002246
:1042E8001A700023184680BD3205002038E4000803
:1042F8003805002080B584B000AF7860786802F097
:10430800B1FB0346FB7397F90F3018461037BD46CB
:1043180080BD80B584B000AF0346FB800123FB73EA
:10432800FA7BFB880021184602F018FB0346BB7392
:1043380097F90E3018461037BD4680BD80B584B059
:1043480000AF0346FB710123FB6003F0DCFAB860A1
:10435800FA79B968FB68B1FBF3F39A4234BF0123D9
:104368000023DBB218461037BD4680BD80B584B047
:1043780000AF78600B46FB7000F02AFBF860F96824
:104388000648FEF71BFE064B1B781A46F968786844
:1043980009F0F0FC00BF1037BD4680BD60E400089E
:1043A8005005002080B588B000AFF860B9607A6029
:1043B8000023FB77FA68BB681344BB61BB697B6168
:1043C8000023FB7402F0A6FC0346FB74FB7C002B65
:1043D80008D11A48FEF7F2FD7B6802221A606FF0D6
:1043E8000A0327E07B695B78002B03D07B695B7845
:1043F800012B01D1012300E00023FB74FB7C002B7F
:104408000BD17B695B7819460D48FEF7D7FD7B68B1
:1044180002221A606FF001030CE00A48FEF7CEFD95
:104428000120FFF7EFFC0023FB777B6808221A6066
:1044380097F91F3018462037BD4680BD78E400083C
:10444800C4E40008E8E4000880B586B000AF03467D
:10445800B9607A60FB7397F90F30002B47D1BB68BE
:104468007B6108220021786909F052FC7B69FF22F0
:104478001A7005227B695A7000227B699A7003F0D2
:1044880042FA0346DAB27B69DA7003F035FA03467A
:104498009AB27B699A807B6901229A717B690122B1
:1044A800DA717B695B7819461648FEF787FD7B69E8
:1044B8009B7819461448FEF781FD7B69DB7819461D
:1044C8001248FEF77BFD7B699B889BB21946104812
:1044D800FEF774FD7B699B7919460E48FEF76EFD61
:1044E8007B69DB7919460C48FEF768FD06E097F909
:1044F8000F307A68B9681846FFF7E6FC00BF18372E
:10450800BD4680BD10E500082CE5000848E5000818
:1045180064E5000880E500089CE5000880B586B0E1
:1045280000AFF860B9607A600123FB7502F0F2FB16
:104538000346FB75FB7D002B08D10B48FEF73EFDBB
:104548007B6802221A606FF00A0309E00748FEF749
:1045580035FD0020FFF756FC7B6801221A60002316
:1045680018461837BD4680BDB8E5000808E60008BB
:1045780080B584B000AFF860B9607A600548FEF78E
:104588001DFD7B6806221A60002318461037BD46B9
:1045980080BD00BF38E6000880B586B000AF03468E
:1045A800B9607A60FB73BB687B6106220021786979
:1045B80009F0AEFB7B69FF221A70FFF733FC034654
:1045C8001A467B695A70FFF767FC03461A467B69EF
:1045D8009A70FFF76DFC03461A467B699A807B69DF
:1045E8005B7819460948FEF7E9FC7B699B78194610
:1045F8000748FEF7E3FC7B699B889BB21946054890
:10460800FEF7DCFC00BF1837BD4680BD44E6000855
:1046180068E600088CE6000880B586B000AFF86050
:10462800B9607A600023FB750B48FEF7C7FC02F0FF
:104638005BFB0346FB75FB7D002B03D003F08CF975
:1046480002F061FB7B6802221A606FF004031846CF
:104658001837BD4680BD00BFB0E6000880B588B0F9
:1046680000AFF860B9607A600023FB77FA68BB682E
:104678001344BB61BB697B610023FB747B695A6887
:104688007B69DB781946104600F0AEF90346FB74E7
:10469800FB7C002B08D10D48FEF790FC7B680222BA
:1046A8001A606FF00B030CE07B6959687B69DB7853
:1046B8001A460748FEF782FC7B6801221A6097F9C0
:1046C8001F3018462037BD4680BD00BFB8E6000839
:1046D800D4E6000880B58AB000AFF860B9607A60A7
:1046E800002387F82730FA68BB6813443B623B6AAB
:1046F800FB610023FB7600F06BF97861FB695B785E
:104708001846FFF71BFE0346FB76FB7E002B0BD1FA
:10471800FB695B7819461248FEF750FC7B68022259
:104728001A606FF0010316E07B69002B08D10D4871
:10473800FEF744FC7B6802221A606FF00B030AE064
:10474800FB695A78084B1A70074B1B785A1C7B6810
:104758001A6097F9273018462837BD4680BD00BF34
:1047680008E7000838E700085005002080B588B041
:1047780000AF0346B9607A60FB7397F90F30002BDE
:1047880030D100F025F9F861BB68BB610122002136
:10479800B86909F0BDFABB69FF221A70FB69002BE2
:1047A8001CD0164B1B7801337A689A4216D1BB6825
:1047B80001337B610023FB741148FEF7FFFBFB7C90
:1047C80019467869FFF7D2FD0C4B1B78184600F0A4
:1047D80029F90A4B00221A7000BF0AE00948FEF7BF
:1047E800EDFB06E097F90F307A68B9681846FFF7CD
:1047F8006BFB00BF2037BD4680BD00BF50050020C1
:1048080054E7000860E7000880B588B000AFF8609A
:10481800B9607A600023FB77FA68BB681344BB6110
:10482800BB697B610023FB747B695B781846FFF7E3
:1048380085FD0346FB74FB7C002B0BD17B695B7801
:1048480019461748FEF7BAFB7B6802221A606FF018
:10485800010320E07B695A687B69DB7819461046BA
:1048680000F0C2F80346FB74FB7C002B08D10D480E
:10487800FEF7A4FB7B6802221A606FF00B030AE0C4
:104888007B695A78084B1A70074B1B785A1C7B684F
:104898001A6097F91F3018462037BD4680BD00BF03
:1048A80080E70008B4E700085005002080B588B00C
:1048B80000AF0346B9607A60FB7397F90F30002B9D
:1048C80030D100F085F8F861BB68BB610122002196
:1048D800B86909F01DFABB69FF221A70FB69002B41
:1048E8001CD0164B1B7801337A689A4216D1BB68E4
:1048F80001337B610023FB741148FEF75FFBFB7CEF
:1049080019467869FFF732FD0C4B1B78184600F002
:1049180089F80A4B00221A7000BF0AE00948FEF71E
:104928004DFB06E097F90F307A68B9681846FFF72B
:10493800CBFA00BF2037BD4680BD00BF5005002020
:10494800D4E70008E4E7000880B582B000AF03466A
:10495800FB71FB79072204491846FFF743FB03461E
:1049680018460837BD4680BD4006010880B500AF2F
:10497800034800F013F800F069F800BF80BD00BFDD
:104988005149000880B400AF034B1B681846BD4668
:104998005DF8047B704700BF5405002080B483B0E5
:1049A80000AF7860044A7B68136000BF0C37BD46CF
:1049B8005DF8047B704700BF5405002080B500AF48
:1049C80000F04BF80020FFF7E9FF00BF80BD0000B2
:1049D80080B400AF034B1B681846BD465DF8047BE6
:1049E800704700BF4805002080B483B000AF7860EE
:1049F8000B46FB70FB78002B04D17B68002B01D1A0
:104A0800002306E0064A7B681360054AFB781371A9
:104A1800012318460C37BD465DF8047B704700BF7C
:104A28004805002080B483B000AF0346FB71064BF5
:104A38001A68FB791344044A136000BF0C37BD465B
:104A48005DF8047B704700BF4805002080B400AFC4
:104A580000BFBD465DF8047B704780B400AF00BF5F
:104A6800BD465DF8047B704780B584B000AF03464F
:104A7800FB800023FB7305F0E8FE03460B4A136036
:104A88000B4B1B68002B0CBF01230023DBB2FB730D
:104A9800FB7B002B04D1054B1B68184605F0E6FE8E
:104AA800FB7B18461037BD4680BD00BF640500205B
:104AB8006005002080B582B000AF0346FB80044B40
:104AC8001B68184605F0D2FE00BF0837BD4680BDFA
:104AD8006405002080B582B000AF0346FB8005F076
:104AE800B4FE0346074A1360074B1B680133064AA6
:104AF8001360044B1B68184605F0B8FE00BF083762
:104B0800BD4680BD640500206005002080B582B0E8
:104B180000AF0346FB8005F098FE0346074A136082
:104B2800074B1B68013B064A1360044B1B68184679
:104B380005F09CFE00BF0837BD4680BD6405002017
:104B48006005002080B483B000AF0346FB80104BA3
:104B58001968FA8813465B001344DB000B445B7941
:104B6800022B0AD00A4B1968FA8813465B001344D3
:104B7800DB000B445B79032B01D1012300E0002308
:104B8800DBB218460C37BD465DF8047B704700BFA2
:104B98005805002080B582B000AF0023FB710023C8
:104BA800BB800023BB8008E0BB881846FFF7CAFF1C
:104BB8000346FB71BB880133BB80094B9B88BA88CD
:104BC8009A4202D2FB79002BEED0FB79002B0CBF66
:104BD80001230023DBB218460837BD4680BD00BF5D
:104BE8005805002080B485B000AF0346FB800B4613
:104BF8007B7113463B71284B1B68002B42D0264B18
:104C08009B88FA889A423DD2234B1968FA88134642
:104C18005B001344DB000B441B68002B32D01E4B97
:104C28001968FA8813465B001344DB000B441B79B0
:104C38007A799A4226D2184B1968FA8813465B008B
:104C48001344DB000B4419687A791346DB009B1A7E
:104C58009B000B441B68002B14D00F4B1968FA8873
:104C680013465B001344DB000B4419687A7913463A
:104C7800DB009B1A9B000B441B793A799A4201D2BC
:104C8800012300E00023FB73FB7B18461437BD4665
:104C98005DF8047B704700BF5805002080B485B0DC
:104CA80000AF03463A60FB710B46BB710023FB73F0
:104CB800BB79BB81FB79FF2B04D1BB89FF2B01D8C2
:104CC8000123FB73FB7B18461437BD465DF8047B54
:104CD800704780B483B000AF0346FB71FB7923F0C3
:104CE8001003002B0CBF01230023DBB218460C373E
:104CF800BD465DF8047B704780B485B000AF0346BD
:104D0800FB710023FB73FB79002B05D0FB79012B8A
:104D180002D0FB79022B01D10123FB73FB7B1846E0
:104D28001437BD465DF8047B704780B485B000AF8A
:104D38000346FB710023FB73FB79002B05D0FB793D
:104D4800012B02D0FB79022B01D10123FB73FB7BE2
:104D580018461437BD465DF8047B704780B400AF31
:104D680001231846BD465DF8047B704780B485B0C2
:104D780000AF0346FB80164B1968FA8813465B00A0
:104D88001344DB000B441B7B022B0ED1104B19681C
:104D9800FA8813465B001344DB000B44DA880D4B9A
:104DA8001B889A4201D0012300E00023FB73FB7BA0
:104DB800002B04D0FB88002B01D1012300E0002345
:104DC800FB73FB7B18461437BD465DF8047B7047C0
:104DD800580500201800002080B485B000AF786026
:104DE8000B46FB707B681968FA781346DB009B1A40
:104DF8009B000B44BB60BB689B687A68D28902FB46
:104E080003F30133FB60FB78002B08D17B681B7A26
:104E180003F01003002B02D0FB680433FB60FB682F
:104E280018461437BD465DF8047B704780B586B0D8
:104E380000AF78600023BB7400237B610023FB7400
:104E48000023FB7415E0FB7C19467868FFF7C4FF64
:104E5800F8600023BB600121F86802F015FDB86016
:104E6800BA687B699A4201D9BB687B61FB7C0133D4
:104E7800FB747B681B79FA7C9A42E4D37B681B79C4
:104E88001A4613465B0099187B6814331A467869EA
:104E980003F050F80346BB7497F91230002B03D087
:104EA8007B684FF0FF325A6197F91230184618376D
:104EB800BD4680BD80B582B000AF78607B685B6915
:104EC800B3F1FF3F04D07B685B69184603F044F9EF
:104ED8007B684FF0FF325A6100BF0837BD4680BD7E
:104EE80080B58AB000AFF860B9607A60002387F8AF
:104EF8002730FA68BB6813443B623B6AFB61FB6975
:104F08009A78DB781B0213437B83FB691B797B76DA
:104F1800FB695B793B760023FB753A7E797E7B8B58
:104F28001846FFF75FFE0346FB75FB7D002B0BD190
:104F3800798B7A7E3B7E1D48FEF740F87B6802221B
:104F48001A606FF001032CE07B8B1846FFF7FAFD1F
:104F58000346002B0CBF01230023DBB2FB75FB7D4E
:104F6800002B0AD17B8B19461148FEF727F87B687E
:104F780002221A606FF0070313E0798B7A7E3B7E7A
:104F88000C48FEF71BF80C4A7B8B13800A4A7B7E81
:104F98009370094A3B7ED3707B6801221A6097F9A7
:104FA800273018462837BD4680BD00BF0CE80008EA
:104FB80050E8000880E8000814000020F0B58FB021
:104FC80004AFF860B9607A60002387F82730FA6880
:104FD800BB6813443B623B6AFB61584B1B887B836D
:104FE800564B9B787B76554BDB783B7600237B6171
:104FF8000023FB743A7E797E7B8B1846FFF7F2FD1F
:105008000346FB74FB7C002B0BD1798B7A7E3B7EAD
:105018004B48FDF7D3FF7B6802221A606FF0050347
:1050280087E07B8B1846FFF78DFD0346002B0CBFEE
:1050380001230023DBB2FB74FB7C002B0AD17B8BA2
:1050480019464048FDF7BAFF7B6802221A606FF0E4
:1050580007036EE0FB695878FB699978FB695B6820
:105068001A46FFF71BFE0346FB74FB7C002B1BD183
:10507800798B7A7E387EFB695B781C46FB699B7866
:105088001D46FB69DB781E46FB695B680393029645
:105098000195009403462C48FDF790FF7B68022297
:1050A8001A606FF0010344E0798B7A7E387EFB69E1
:1050B8005B781C46FB699B781D46FB69DB781E46BE
:1050C800FB695B68039302960195009403461F48A9
:1050D800FDF774FF1E4B19687A8B13465B00134467
:1050E800DB000B4419687A7E1346DB009B1A9B0091
:1050F8000B441A683B7EDB0013447B61FB695A78DA
:105108007B691A70FB699A787B695A70FB69DA784F
:105118007B699A70FB695A687B695A60074BDB7830
:105128000133DAB2054BDA707B6801221A6097F90D
:10513800273018462C37BD46F0BD00BF14000020AC
:10514800D0E800082CE900085CE90008D4E9000868
:105158005805002090B58DB002AFF860B9607A604C
:10516800002387F82730FA68BB6813443B623B6A20
:10517800FB610023BB610023FB75614B1B68002B9F
:1051880008D0FB695B889AB25D4B9B889A4201D232
:10519800012300E00023FB75FB7D002B0CD1FB698C
:1051A8005B889BB219465748FDF708FF7B680222C7
:1051B8001A606FF001039FE0514B1A68FB695B8826
:1051C8009BB219460B465B000B44DB001344BB61E2
:1051D800FB695B889BB21846FFF7B4FC0346002BBB
:1051E8000CBF01230023DBB2FB75FB7D002B0CD128
:1051F800FB695B889BB219464348FDF7DFFE7B6875
:1052080002221A606FF0070376E0FB699B889BB265
:105218007F2B94BF01230023DBB2FB75FB7D002BA2
:105228000CD1FB699B889BB219463848FDF7C6FE2E
:105238007B6802221A606FF001035DE0FB69DB798D
:10524800002B0CBF01230023DBB2FB75FB7D002B79
:1052580008D12F48FDF7B2FE7B6802221A606FF072
:10526800010349E0FB695B781846FFF732FD034606
:10527800FB75FB7D002B0BD1FB695B781946254834
:10528800FDF79CFE7B6802221A606FF0090333E089
:10529800FB695B889BB21946FB695B781846FB691A
:1052A8009B889BB21C46FB699B791A46FB69DB7994
:1052B80001930092234602461748FDF77FFEFB69DB
:1052C8005A78BB691A72FB699B889AB2BB69DA8003
:1052D800FB699A79BB695A72FB69DA79BB699A7278
:1052E800BB695B7A012B02D8BB6901225A727B68C1
:1052F80001221A6097F9273018462C37BD4690BD11
:105308005805002044EA000874EA0008A8EA0008E2
:10531800D8EA000814EB000848EB000890B58FB0F5
:1053280000AFF860B9607A60002387F82630FA6821
:10533800BB6813443B623B6AFB610023BB61FB69AA
:105348005B889BB27B61002387F837300023FB74AE
:105358008A4B1B68002B07D0884B9B881A467B69B1
:10536800934201DA012300E0002387F8373097F8E9
:105378003730002B09D179698148FDF71FFE7B681A
:1053880002221A606FF00103B2E17E4A7B69136062
:105398007A4B19687A6913465B001344DB000B44A7
:1053A800BB61FB695B781846FFF7A6FC034687F8E4
:1053B800373097F83730002B0BD1FB695B781946EB
:1053C8007148FDF7FBFD7B6802221A606FF0090344
:1053D8008EE1FFF7C3FC0346002B5AD0BB695B790B
:1053E800002B56D1BB691B7A03F00203002B21D096
:1053F800BB691B68002B09D0604BDB791A46BB6977
:105408001B791344802B01DC012300E0002387F87B
:10541800373097F83730002B2DD0584BDA79BB69E5
:10542800DA72564BDA79BB691B791344DAB2534BFB
:10543800DA7120E0BB691B68002B09D04F4B9B79C0
:105448001A46BB691B791344FC2B01DC012300E0DD
:10545800002387F8373097F83730002B0BD0474BAD
:105468009A79BB69DA72454B9A79BB691B791344FF
:10547800DAB2424B9A7197F83730002B09D1796923
:105488004248FDF79BFD7B6802221A606FF0080313
:105498002EE1FB695B78012B04D0FB695B78022B5A
:1054A80040F0908000233B63012387F837300023C6
:1054B8003B637CE00023FB620023BB620023FB62AA
:1054C80013E0BB6919683A6B1346DB009B1A9B0013
:1054D8000B441A68FB6ADB0013445B781A46BB6A04
:1054E8001344BB62FB6A0133FB62BB6919683A6B00
:1054F8001346DB009B1A9B000B441B791A46FB6A78
:105508009342DEDB3B6B002B17D1BB691B7A03F0A0
:105518001003002B11D0BB69DB891A46BB6A02FB5A
:1055280003F35C1D02F0E8F903469C4294BF012393
:105538000023DBB287F8373010E0BB69DB891A46F5
:10554800BB6A02FB03F35C1C02F0D6F903469C42DB
:1055580094BF01230023DBB287F8373097F8373040
:10556800002B17D13A6B79690948FDF727FD7B684D
:1055780002221A606FF00803BAE000BF5805002045
:10558800ACEB000810000020DCEB00080CEC000875
:1055980048EC0008BB6919683A6B1346DB009B1A94
:1055A8009B000B44BA6A9A603B6B01333B63BB694F
:1055B8001B791A463B6B934204DA97F83730002B75
:1055C8007FF478AFBB69DB881846FFF74DFA0346CE
:1055D800FB74FB7C002B7DD0002387F82730FB6908
:1055E8005B78022B53D0022B5FDC002B02D0012BFF
:1055F80013D05AE079694048FDF7E0FCBB69012205
:105608005A71FFF7C7FA0346002B4BD00120FEF76B
:10561800F9FB4020FEF726FC44E079693748FDF79E
:10562800CDFCBB695B69B3F1FF3F22D1BB69DA8866
:10563800334B1B889A420CD1314B5868304B9968D0
:10564800BB6914331A4602F033FE034687F8273045
:105658000FE07B69002B0CDCBB69DB88002B08D1D1
:10566800B869FFF7E3FB034687F82730BB690022D8
:105678001A8297F92730002B16D1BB6903225A7179
:105688000220FEF7BFFB4020FEF7D8FB0CE0FB69C9
:105698005B889BB219461B48FDF790FCBB69022248
:1056A8005A7102E000BF00E000BFBB69DB88184602
:1056B800FFF700FA7B6802221A6097F92730002B5F
:1056C80008D01148FDF77AFC7B6802221A606FF057
:1056D80002030DE0FB7C002B08D10C48FDF76EFCA3
:1056E8007B6802221A606FF00A0301E097F92630FE
:1056F80018463C37BD4690BDACEC0008D8EC000815
:105708001800002004ED000830ED00087CED0008CA
:1057180080B586B000AF0346B9607A60FB7397F92D
:105728000F30002B12D1BB687B617B69FF221A7096
:105738000C4B1A680C4B1B6819460B465B000B4454
:10574800DB001344DA7A7B695A7006E097F90F3068
:105758007A68B9681846FEF7B7FB00BF1837BD4628
:1057680080BD00BF580500201000002090B58BB008
:1057780000AFF860B9607A600023FB77FA68BB680D
:105788001344BB61BB697B610023FB740023BB74BA
:1057980000237B627B695B781846FFF7C6FA0346ED
:1057A800FB74FB7C002B0BD17B695B781946A64800
:1057B800FDF704FC7B6802221A606FF0090362E1BE
:1057C800A24B1B68002B05D0A04B9B88002B01D057
:1057D800012300E00023FB74FB7C002B08D19C48CC
:1057E800FDF7ECFB7B6802221A606FF001034AE1C7
:1057F80001F07AFA0346BB74BB7C002B00F03581BC
:10580800002387F8233000233B847B695B78022BD5
:1058180000F0D580022B00F30681002B02D0012B6B
:105828002CD000E100237B621BE0884B19687A6A60
:1058380013465B001344DB000B445B79002B0DD04F
:10584800796A8448FDF7BAFB804B19687A6A13466F
:105858005B001344DB000B4401225A717B6A01335D
:105868007B627A4B9B881A467B6A9342DDDB012078
:10587800FEF7C8FA4020FEF7F5FAD4E000237B6271
:1058880063E0724B19687A6A13465B001344DB00C5
:105898000B445B79022B55D16C4B19687A6A134615
:1058A8005B001344DB000B445B69B3F1FF3F49D154
:1058B800664B19687A6A13465B001344DB000B4495
:1058C800DA88654B1B889A4214D1634B5868624B3F
:1058D8009C685E4B19687A6A13465B001344DB00C8
:1058E8000B4414331A46214602F0E2FC034687F8BB
:1058F800233027E07B6A002B24DC544B19687A6A32
:1059080013465B001344DB000B44DB88002B19D1E2
:105918004E4B19687A6A13465B001344DB000B444C
:105928001846FFF783FA034687F82330474B196870
:105938007A6A13465B001344DB000B4400221A8288
:105948007B6A3B847B6A01337B62404B9B881A46A7
:105958007B6A934203DA97F92330002B91D097F9A9
:105968002330002B5CD100237B6221E0374B196880
:105978007A6A13465B001344DB000B445B79022B05
:1059880013D1796A3548FDF719FB304B19687A6AE3
:1059980013465B001344DB000B4403225A710220B8
:1059A800FEF730FA4020FEF749FA7B6A01337B6242
:1059B800264B9B881A467B6A9342D7DB30E000234C
:1059C8007B621BE0214B19687A6A13465B0013441B
:1059D800DB000B445B79022B0DD1796A1D48FDF77A
:1059E800EDFA1A4B19687A6A13465B001344DB0018
:1059F8000B4401225A717B6A01337B62134B9B88EB
:105A08001A467B6A9342DDDBFFF7C4F80346002B96
:105A180008D00120FEF7F6F94020FEF723FA01E04E
:105A280000BF00E000BF01F06EF997F92330002BAA
:105A380018D03B8C19460A48FDF7C0FA7B68022249
:105A48001A606FF002031EE0C4ED0008580500203C
:105A5800F4ED000820EE00081800002048EE0008C9
:105A680070EE00087B6801221A60BB7C002B08D10D
:105A78000748FDF7A3FA7B6802221A606FF00A0351
:105A880001E097F91F3018462C37BD4690BD00BF7E
:105A9800BCEE000880B584B000AFF860B9607A60E9
:105AA8000548FDF78BFA7B6808221A600023184620
:105AB8001037BD4680BD00BF00EF000880B586B036
:105AC80000AF0346B9607A60FB73BB687B6108224C
